{
  "_format": "hh-sol-artifact-1",
  "contractName": "MyEpicNFT",
  "sourceName": "contracts/MyEpicNFT.sol",
  "abi": [
    {
      "inputs": [],
      "stateMutability": "nonpayable",
      "type": "constructor"
    },
    {
      "anonymous": false,
      "inputs": [
        {
          "indexed": true,
          "internalType": "address",
          "name": "owner",
          "type": "address"
        },
        {
          "indexed": true,
          "internalType": "address",
          "name": "approved",
          "type": "address"
        },
        {
          "indexed": true,
          "internalType": "uint256",
          "name": "tokenId",
          "type": "uint256"
        }
      ],
      "name": "Approval",
      "type": "event"
    },
    {
      "anonymous": false,
      "inputs": [
        {
          "indexed": true,
          "internalType": "address",
          "name": "owner",
          "type": "address"
        },
        {
          "indexed": true,
          "internalType": "address",
          "name": "operator",
          "type": "address"
        },
        {
          "indexed": false,
          "internalType": "bool",
          "name": "approved",
          "type": "bool"
        }
      ],
      "name": "ApprovalForAll",
      "type": "event"
    },
    {
      "anonymous": false,
      "inputs": [
        {
          "indexed": true,
          "internalType": "address",
          "name": "from",
          "type": "address"
        },
        {
          "indexed": true,
          "internalType": "address",
          "name": "to",
          "type": "address"
        },
        {
          "indexed": true,
          "internalType": "uint256",
          "name": "tokenId",
          "type": "uint256"
        }
      ],
      "name": "Transfer",
      "type": "event"
    },
    {
      "inputs": [
        {
          "internalType": "address",
          "name": "to",
          "type": "address"
        },
        {
          "internalType": "uint256",
          "name": "tokenId",
          "type": "uint256"
        }
      ],
      "name": "approve",
      "outputs": [],
      "stateMutability": "nonpayable",
      "type": "function"
    },
    {
      "inputs": [
        {
          "internalType": "address",
          "name": "owner",
          "type": "address"
        }
      ],
      "name": "balanceOf",
      "outputs": [
        {
          "internalType": "uint256",
          "name": "",
          "type": "uint256"
        }
      ],
      "stateMutability": "view",
      "type": "function"
    },
    {
      "inputs": [
        {
          "internalType": "uint256",
          "name": "tokenId",
          "type": "uint256"
        }
      ],
      "name": "getApproved",
      "outputs": [
        {
          "internalType": "address",
          "name": "",
          "type": "address"
        }
      ],
      "stateMutability": "view",
      "type": "function"
    },
    {
      "inputs": [
        {
          "internalType": "address",
          "name": "owner",
          "type": "address"
        },
        {
          "internalType": "address",
          "name": "operator",
          "type": "address"
        }
      ],
      "name": "isApprovedForAll",
      "outputs": [
        {
          "internalType": "bool",
          "name": "",
          "type": "bool"
        }
      ],
      "stateMutability": "view",
      "type": "function"
    },
    {
      "inputs": [],
      "name": "makeAnEpicNFT",
      "outputs": [],
      "stateMutability": "nonpayable",
      "type": "function"
    },
    {
      "inputs": [],
      "name": "name",
      "outputs": [
        {
          "internalType": "string",
          "name": "",
          "type": "string"
        }
      ],
      "stateMutability": "view",
      "type": "function"
    },
    {
      "inputs": [
        {
          "internalType": "uint256",
          "name": "tokenId",
          "type": "uint256"
        }
      ],
      "name": "ownerOf",
      "outputs": [
        {
          "internalType": "address",
          "name": "",
          "type": "address"
        }
      ],
      "stateMutability": "view",
      "type": "function"
    },
    {
      "inputs": [
        {
          "internalType": "uint256",
          "name": "tokenId",
          "type": "uint256"
        }
      ],
      "name": "pickRandomWord",
      "outputs": [
        {
          "internalType": "string",
          "name": "",
          "type": "string"
        }
      ],
      "stateMutability": "view",
      "type": "function"
    },
    {
      "inputs": [
        {
          "internalType": "address",
          "name": "from",
          "type": "address"
        },
        {
          "internalType": "address",
          "name": "to",
          "type": "address"
        },
        {
          "internalType": "uint256",
          "name": "tokenId",
          "type": "uint256"
        }
      ],
      "name": "safeTransferFrom",
      "outputs": [],
      "stateMutability": "nonpayable",
      "type": "function"
    },
    {
      "inputs": [
        {
          "internalType": "address",
          "name": "from",
          "type": "address"
        },
        {
          "internalType": "address",
          "name": "to",
          "type": "address"
        },
        {
          "internalType": "uint256",
          "name": "tokenId",
          "type": "uint256"
        },
        {
          "internalType": "bytes",
          "name": "_data",
          "type": "bytes"
        }
      ],
      "name": "safeTransferFrom",
      "outputs": [],
      "stateMutability": "nonpayable",
      "type": "function"
    },
    {
      "inputs": [
        {
          "internalType": "address",
          "name": "operator",
          "type": "address"
        },
        {
          "internalType": "bool",
          "name": "approved",
          "type": "bool"
        }
      ],
      "name": "setApprovalForAll",
      "outputs": [],
      "stateMutability": "nonpayable",
      "type": "function"
    },
    {
      "inputs": [
        {
          "internalType": "bytes4",
          "name": "interfaceId",
          "type": "bytes4"
        }
      ],
      "name": "supportsInterface",
      "outputs": [
        {
          "internalType": "bool",
          "name": "",
          "type": "bool"
        }
      ],
      "stateMutability": "view",
      "type": "function"
    },
    {
      "inputs": [],
      "name": "symbol",
      "outputs": [
        {
          "internalType": "string",
          "name": "",
          "type": "string"
        }
      ],
      "stateMutability": "view",
      "type": "function"
    },
    {
      "inputs": [
        {
          "internalType": "uint256",
          "name": "tokenId",
          "type": "uint256"
        }
      ],
      "name": "tokenURI",
      "outputs": [
        {
          "internalType": "string",
          "name": "",
          "type": "string"
        }
      ],
      "stateMutability": "view",
      "type": "function"
    },
    {
      "inputs": [
        {
          "internalType": "address",
          "name": "from",
          "type": "address"
        },
        {
          "internalType": "address",
          "name": "to",
          "type": "address"
        },
        {
          "internalType": "uint256",
          "name": "tokenId",
          "type": "uint256"
        }
      ],
      "name": "transferFrom",
      "outputs": [],
      "stateMutability": "nonpayable",
      "type": "function"
    }
  ],
  "bytecode": "0x6080604052604051806101e001604052806101a7815260200162003c1d6101a7913960089080519060200190620000389291906200053f565b50604051806101c001604052806040518060400160405280600e81526020017f756e6520666f757263686574746500000000000000000000000000000000000081525081526020016040518060400160405280600c81526020017f756e65206372657665747465000000000000000000000000000000000000000081525081526020016040518060400160405280600c81526020017f756e6520706c616e65747465000000000000000000000000000000000000000081525081526020016040518060400160405280600981526020017f756e65206361727465000000000000000000000000000000000000000000000081525081526020016040518060400160405280600c81526020017f756e652062726f7565747465000000000000000000000000000000000000000081525081526020016040518060400160405280600d81526020017f756e6520696e76656e74696f6e0000000000000000000000000000000000000081525081526020016040518060400160405280600e81526020017f756e6520636f6363696e656c6c6500000000000000000000000000000000000081525081526020016040518060400160405280600981526020017f756e2062616c6c6f6e000000000000000000000000000000000000000000000081525081526020016040518060400160405280600b81526020017f756e206d696e69676f6c6600000000000000000000000000000000000000000081525081526020016040518060400160405280600981526020017f756e2070616e696572000000000000000000000000000000000000000000000081525081526020016040518060400160405280600c81526020017f756e20656e746f6e6e6f6972000000000000000000000000000000000000000081525081526020016040518060400160405280600a81526020017f756e20726f6e676575720000000000000000000000000000000000000000000081525081526020016040518060400160405280600981526020017f756e206d6972616765000000000000000000000000000000000000000000000081525081526020016040518060400160405280600c81526020017f756e207061726163687574650000000000000000000000000000000000000000815250815250600990600e6200038f929190620005d0565b503480156200039d57600080fd5b506040518060400160405280600a81526020017f4e6f6e4e46542d4e4654000000000000000000000000000000000000000000008152506040518060400160405280600481526020017f4e4e4654000000000000000000000000000000000000000000000000000000008152508160009080519060200190620004229291906200053f565b5080600190805190602001906200043b9291906200053f565b5050506200046d60405180606001604052806034815260200162003dc4603491396200047360201b62000ef91760201c565b620007f1565b62000513816040516024016200048a919062000705565b6040516020818303038152906040527f41304fac000000000000000000000000000000000000000000000000000000007bffffffffffffffffffffffffffffffffffffffffffffffffffffffff19166020820180517bffffffffffffffffffffffffffffffffffffffffffffffffffffffff83818316178352505050506200051660201b60201c565b50565b60008151905060006a636f6e736f6c652e6c6f679050602083016000808483855afa5050505050565b8280546200054d906200077b565b90600052602060002090601f016020900481019282620005715760008555620005bd565b82601f106200058c57805160ff1916838001178555620005bd565b82800160010185558215620005bd579182015b82811115620005bc5782518255916020019190600101906200059f565b5b509050620005cc919062000637565b5090565b82805482825590600052602060002090810192821562000624579160200282015b8281111562000623578251829080519060200190620006129291906200053f565b5091602001919060010190620005f1565b5b50905062000633919062000656565b5090565b5b808211156200065257600081600090555060010162000638565b5090565b5b808211156200067a57600081816200067091906200067e565b5060010162000657565b5090565b5080546200068c906200077b565b6000825580601f10620006a05750620006c1565b601f016020900490600052602060002090810190620006c0919062000637565b5b50565b6000620006d18262000729565b620006dd818562000734565b9350620006ef81856020860162000745565b620006fa81620007e0565b840191505092915050565b60006020820190508181036000830152620007218184620006c4565b905092915050565b600081519050919050565b600082825260208201905092915050565b60005b838110156200076557808201518184015260208101905062000748565b8381111562000775576000848401525b50505050565b600060028204905060018216806200079457607f821691505b60208210811415620007ab57620007aa620007b1565b5b50919050565b7f4e487b7100000000000000000000000000000000000000000000000000000000600052602260045260246000fd5b6000601f19601f8301169050919050565b61341c80620008016000396000f3fe608060405234801561001057600080fd5b50600436106100f55760003560e01c80636352211e11610097578063b88d4fde11610066578063b88d4fde14610296578063c87b56dd146102b2578063de9d132f146102e2578063e985e9c5146102ec576100f5565b80636352211e146101fc57806370a082311461022c57806395d89b411461025c578063a22cb4651461027a576100f5565b8063095ea7b3116100d3578063095ea7b31461017857806323b872dd146101945780633e1831dd146101b057806342842e0e146101e0576100f5565b806301ffc9a7146100fa57806306fdde031461012a578063081812fc14610148575b600080fd5b610114600480360381019061010f919061218c565b61031c565b6040516101219190612c90565b60405180910390f35b6101326103fe565b60405161013f9190612cab565b60405180910390f35b610162600480360381019061015d91906121de565b610490565b60405161016f9190612c29565b60405180910390f35b610192600480360381019061018d9190612150565b610515565b005b6101ae60048036038101906101a9919061204a565b61062d565b005b6101ca60048036038101906101c591906121de565b61068d565b6040516101d79190612cab565b60405180910390f35b6101fa60048036038101906101f5919061204a565b6107ab565b005b610216600480360381019061021191906121de565b6107cb565b6040516102239190612c29565b60405180910390f35b61024660048036038101906102419190611fe5565b61087d565b6040516102539190612f0b565b60405180910390f35b610264610935565b6040516102719190612cab565b60405180910390f35b610294600480360381019061028f9190612114565b6109c7565b005b6102b060048036038101906102ab9190612099565b610b48565b005b6102cc60048036038101906102c791906121de565b610baa565b6040516102d99190612cab565b60405180910390f35b6102ea610cfc565b005b6103066004803603810190610301919061200e565b610e65565b6040516103139190612c90565b60405180910390f35b60007f80ac58cd000000000000000000000000000000000000000000000000000000007bffffffffffffffffffffffffffffffffffffffffffffffffffffffff1916827bffffffffffffffffffffffffffffffffffffffffffffffffffffffff191614806103e757507f5b5e139f000000000000000000000000000000000000000000000000000000007bffffffffffffffffffffffffffffffffffffffffffffffffffffffff1916827bffffffffffffffffffffffffffffffffffffffffffffffffffffffff1916145b806103f757506103f682610f92565b5b9050919050565b60606000805461040d906131aa565b80601f0160208091040260200160405190810160405280929190818152602001828054610439906131aa565b80156104865780601f1061045b57610100808354040283529160200191610486565b820191906000526020600020905b81548152906001019060200180831161046957829003601f168201915b5050505050905090565b600061049b82610ffc565b6104da576040517f08c379a00000000000000000000000000000000000000000000000000000000081526004016104d190612e6b565b60405180910390fd5b6004600083815260200190815260200160002060009054906101000a900473ffffffffffffffffffffffffffffffffffffffff169050919050565b6000610520826107cb565b90508073ffffffffffffffffffffffffffffffffffffffff168373ffffffffffffffffffffffffffffffffffffffff161415610591576040517f08c379a000000000000000000000000000000000000000000000000000000000815260040161058890612ecb565b60405180910390fd5b8073ffffffffffffffffffffffffffffffffffffffff166105b0611068565b73ffffffffffffffffffffffffffffffffffffffff1614806105df57506105de816105d9611068565b610e65565b5b61061e576040517f08c379a000000000000000000000000000000000000000000000000000000000815260040161061590612dab565b60405180910390fd5b6106288383611070565b505050565b61063e610638611068565b82611129565b61067d576040517f08c379a000000000000000000000000000000000000000000000000000000000815260040161067490612eeb565b60405180910390fd5b610688838383611207565b505050565b606060006106c161069d84611463565b6040516020016106ad9190612be5565b604051602081830303815290604052611610565b9050600980549050816106d49190613225565b905060098181548110610710577f4e487b7100000000000000000000000000000000000000000000000000000000600052603260045260246000fd5b906000526020600020018054610725906131aa565b80601f0160208091040260200160405190810160405280929190818152602001828054610751906131aa565b801561079e5780601f106107735761010080835404028352916020019161079e565b820191906000526020600020905b81548152906001019060200180831161078157829003601f168201915b5050505050915050919050565b6107c683838360405180602001604052806000815250610b48565b505050565b6000806002600084815260200190815260200160002060009054906101000a900473ffffffffffffffffffffffffffffffffffffffff169050600073ffffffffffffffffffffffffffffffffffffffff168173ffffffffffffffffffffffffffffffffffffffff161415610874576040517f08c379a000000000000000000000000000000000000000000000000000000000815260040161086b90612deb565b60405180910390fd5b80915050919050565b60008073ffffffffffffffffffffffffffffffffffffffff168273ffffffffffffffffffffffffffffffffffffffff1614156108ee576040517f08c379a00000000000000000000000000000000000000000000000000000000081526004016108e590612dcb565b60405180910390fd5b600360008373ffffffffffffffffffffffffffffffffffffffff1673ffffffffffffffffffffffffffffffffffffffff168152602001908152602001600020549050919050565b606060018054610944906131aa565b80601f0160208091040260200160405190810160405280929190818152602001828054610970906131aa565b80156109bd5780601f10610992576101008083540402835291602001916109bd565b820191906000526020600020905b8154815290600101906020018083116109a057829003601f168201915b5050505050905090565b6109cf611068565b73ffffffffffffffffffffffffffffffffffffffff168273ffffffffffffffffffffffffffffffffffffffff161415610a3d576040517f08c379a0000000000000000000000000000000000000000000000000000000008152600401610a3490612d6b565b60405180910390fd5b8060056000610a4a611068565b73ffffffffffffffffffffffffffffffffffffffff1673ffffffffffffffffffffffffffffffffffffffff16815260200190815260200160002060008473ffffffffffffffffffffffffffffffffffffffff1673ffffffffffffffffffffffffffffffffffffffff16815260200190815260200160002060006101000a81548160ff0219169083151502179055508173ffffffffffffffffffffffffffffffffffffffff16610af7611068565b73ffffffffffffffffffffffffffffffffffffffff167f17307eab39ab6107e8899845ad3d59bd9653f200f220920489ca2b5937696c3183604051610b3c9190612c90565b60405180910390a35050565b610b59610b53611068565b83611129565b610b98576040517f08c379a0000000000000000000000000000000000000000000000000000000008152600401610b8f90612eeb565b60405180910390fd5b610ba484848484611643565b50505050565b6060610bb582610ffc565b610bf4576040517f08c379a0000000000000000000000000000000000000000000000000000000008152600401610beb90612e4b565b60405180910390fd5b6000600660008481526020019081526020016000208054610c14906131aa565b80601f0160208091040260200160405190810160405280929190818152602001828054610c40906131aa565b8015610c8d5780601f10610c6257610100808354040283529160200191610c8d565b820191906000526020600020905b815481529060010190602001808311610c7057829003601f168201915b505050505090506000610c9e61169f565b9050600081511415610cb4578192505050610cf7565b600082511115610ce9578082604051602001610cd1929190612b4d565b60405160208183030381529060405292505050610cf7565b610cf2846116b6565b925050505b919050565b6000610d08600761175d565b90506000610d158261068d565b90506000600882604051602001610d2d929190612b71565b60405160208183030381529060405290506000610d7283610d4d8461176b565b604051602001610d5e929190612ba0565b60405160208183030381529060405261176b565b9050600081604051602001610d879190612c07565b6040516020818303038152906040529050610dd66040518060400160405280601581526020017f0a2d2d2d2d2d2d2d2d2d2d2d2d2d2d2d2d2d2d2d2d0000000000000000000000815250610ef9565b610ddf81610ef9565b610e1d6040518060400160405280601581526020017f2d2d2d2d2d2d2d2d2d2d2d2d2d2d2d2d2d2d2d2d0a0000000000000000000000815250610ef9565b610e273386611929565b610e318582611947565b610e546040518060600160405280602781526020016133806027913986336119bb565b610e5e6007611a5a565b5050505050565b6000600560008473ffffffffffffffffffffffffffffffffffffffff1673ffffffffffffffffffffffffffffffffffffffff16815260200190815260200160002060008373ffffffffffffffffffffffffffffffffffffffff1673ffffffffffffffffffffffffffffffffffffffff16815260200190815260200160002060009054906101000a900460ff16905092915050565b610f8f81604051602401610f0d9190612cab565b6040516020818303038152906040527f41304fac000000000000000000000000000000000000000000000000000000007bffffffffffffffffffffffffffffffffffffffffffffffffffffffff19166020820180517bffffffffffffffffffffffffffffffffffffffffffffffffffffffff8381831617835250505050611a70565b50565b60007f01ffc9a7000000000000000000000000000000000000000000000000000000007bffffffffffffffffffffffffffffffffffffffffffffffffffffffff1916827bffffffffffffffffffffffffffffffffffffffffffffffffffffffff1916149050919050565b60008073ffffffffffffffffffffffffffffffffffffffff166002600084815260200190815260200160002060009054906101000a900473ffffffffffffffffffffffffffffffffffffffff1673ffffffffffffffffffffffffffffffffffffffff1614159050919050565b600033905090565b816004600083815260200190815260200160002060006101000a81548173ffffffffffffffffffffffffffffffffffffffff021916908373ffffffffffffffffffffffffffffffffffffffff160217905550808273ffffffffffffffffffffffffffffffffffffffff166110e3836107cb565b73ffffffffffffffffffffffffffffffffffffffff167f8c5be1e5ebec7d5bd14f71427d1e84f3dd0314c0f7b2291e5b200ac8c7c3b92560405160405180910390a45050565b600061113482610ffc565b611173576040517f08c379a000000000000000000000000000000000000000000000000000000000815260040161116a90612d8b565b60405180910390fd5b600061117e836107cb565b90508073ffffffffffffffffffffffffffffffffffffffff168473ffffffffffffffffffffffffffffffffffffffff1614806111ed57508373ffffffffffffffffffffffffffffffffffffffff166111d584610490565b73ffffffffffffffffffffffffffffffffffffffff16145b806111fe57506111fd8185610e65565b5b91505092915050565b8273ffffffffffffffffffffffffffffffffffffffff16611227826107cb565b73ffffffffffffffffffffffffffffffffffffffff161461127d576040517f08c379a000000000000000000000000000000000000000000000000000000000815260040161127490612e8b565b60405180910390fd5b600073ffffffffffffffffffffffffffffffffffffffff168273ffffffffffffffffffffffffffffffffffffffff1614156112ed576040517f08c379a00000000000000000000000000000000000000000000000000000000081526004016112e490612d4b565b60405180910390fd5b6112f8838383611a99565b611303600082611070565b6001600360008573ffffffffffffffffffffffffffffffffffffffff1673ffffffffffffffffffffffffffffffffffffffff168152602001908152602001600020600082825461135391906130c0565b925050819055506001600360008473ffffffffffffffffffffffffffffffffffffffff1673ffffffffffffffffffffffffffffffffffffffff16815260200190815260200160002060008282546113aa9190612fdf565b92505081905550816002600083815260200190815260200160002060006101000a81548173ffffffffffffffffffffffffffffffffffffffff021916908373ffffffffffffffffffffffffffffffffffffffff160217905550808273ffffffffffffffffffffffffffffffffffffffff168473ffffffffffffffffffffffffffffffffffffffff167fddf252ad1be2c89b69c2b068fc378daa952ba7f163c4a11628f55a4df523b3ef60405160405180910390a4505050565b606060008214156114ab576040518060400160405280600181526020017f3000000000000000000000000000000000000000000000000000000000000000815250905061160b565b600082905060005b600082146114dd5780806114c6906131dc565b915050600a826114d69190613035565b91506114b3565b60008167ffffffffffffffff81111561151f577f4e487b7100000000000000000000000000000000000000000000000000000000600052604160045260246000fd5b6040519080825280601f01601f1916602001820160405280156115515781602001600182028036833780820191505090505b5090505b600085146116045760018261156a91906130c0565b9150600a856115799190613225565b60306115859190612fdf565b60f81b8183815181106115c1577f4e487b7100000000000000000000000000000000000000000000000000000000600052603260045260246000fd5b60200101907effffffffffffffffffffffffffffffffffffffffffffffffffffffffffffff1916908160001a905350600a856115fd9190613035565b9450611555565b8093505050505b919050565b6000816040516020016116239190612b36565b6040516020818303038152906040528051906020012060001c9050919050565b61164e848484611207565b61165a84848484611a9e565b611699576040517f08c379a000000000000000000000000000000000000000000000000000000000815260040161169090612d0b565b60405180910390fd5b50505050565b606060405180602001604052806000815250905090565b60606116c182610ffc565b611700576040517f08c379a00000000000000000000000000000000000000000000000000000000081526004016116f790612eab565b60405180910390fd5b600061170a61169f565b9050600081511161172a5760405180602001604052806000815250611755565b8061173484611463565b604051602001611745929190612b4d565b6040516020818303038152906040525b915050919050565b600081600001549050919050565b606060008251905060008114156117945760405180602001604052806000815250915050611924565b600060036002836117a59190612fdf565b6117af9190613035565b60046117bb9190613066565b905060006020826117cc9190612fdf565b67ffffffffffffffff81111561180b577f4e487b7100000000000000000000000000000000000000000000000000000000600052604160045260246000fd5b6040519080825280601f01601f19166020018201604052801561183d5781602001600182028036833780820191505090505b50905060006040518060600160405280604081526020016133a7604091399050600181016020830160005b868110156118e15760038101905062ffffff818a015116603f8160121c168401518060081b905060ff603f83600c1c1686015116810190508060081b905060ff603f8360061c1686015116810190508060081b905060ff603f831686015116810190508060e01b90508084526004840193505050611868565b5060038606600181146118fb576002811461190b57611916565b613d3d60f01b6002830352611916565b603d60f81b60018303525b508484525050819450505050505b919050565b611943828260405180602001604052806000815250611c35565b5050565b61195082610ffc565b61198f576040517f08c379a000000000000000000000000000000000000000000000000000000000815260040161198690612e0b565b60405180910390fd5b806006600084815260200190815260200160002090805190602001906119b6929190611e71565b505050565b611a558383836040516024016119d393929190612ccd565b6040516020818303038152906040527fe3849f79000000000000000000000000000000000000000000000000000000007bffffffffffffffffffffffffffffffffffffffffffffffffffffffff19166020820180517bffffffffffffffffffffffffffffffffffffffffffffffffffffffff8381831617835250505050611a70565b505050565b6001816000016000828254019250508190555050565b60008151905060006a636f6e736f6c652e6c6f679050602083016000808483855afa5050505050565b505050565b6000611abf8473ffffffffffffffffffffffffffffffffffffffff16611c90565b15611c28578373ffffffffffffffffffffffffffffffffffffffff1663150b7a02611ae8611068565b8786866040518563ffffffff1660e01b8152600401611b0a9493929190612c44565b602060405180830381600087803b158015611b2457600080fd5b505af1925050508015611b5557506040513d601f19601f82011682018060405250810190611b5291906121b5565b60015b611bd8573d8060008114611b85576040519150601f19603f3d011682016040523d82523d6000602084013e611b8a565b606091505b50600081511415611bd0576040517f08c379a0000000000000000000000000000000000000000000000000000000008152600401611bc790612d0b565b60405180910390fd5b805181602001fd5b63150b7a0260e01b7bffffffffffffffffffffffffffffffffffffffffffffffffffffffff1916817bffffffffffffffffffffffffffffffffffffffffffffffffffffffff191614915050611c2d565b600190505b949350505050565b611c3f8383611ca3565b611c4c6000848484611a9e565b611c8b576040517f08c379a0000000000000000000000000000000000000000000000000000000008152600401611c8290612d0b565b60405180910390fd5b505050565b600080823b905060008111915050919050565b600073ffffffffffffffffffffffffffffffffffffffff168273ffffffffffffffffffffffffffffffffffffffff161415611d13576040517f08c379a0000000000000000000000000000000000000000000000000000000008152600401611d0a90612e2b565b60405180910390fd5b611d1c81610ffc565b15611d5c576040517f08c379a0000000000000000000000000000000000000000000000000000000008152600401611d5390612d2b565b60405180910390fd5b611d6860008383611a99565b6001600360008473ffffffffffffffffffffffffffffffffffffffff1673ffffffffffffffffffffffffffffffffffffffff1681526020019081526020016000206000828254611db89190612fdf565b92505081905550816002600083815260200190815260200160002060006101000a81548173ffffffffffffffffffffffffffffffffffffffff021916908373ffffffffffffffffffffffffffffffffffffffff160217905550808273ffffffffffffffffffffffffffffffffffffffff16600073ffffffffffffffffffffffffffffffffffffffff167fddf252ad1be2c89b69c2b068fc378daa952ba7f163c4a11628f55a4df523b3ef60405160405180910390a45050565b828054611e7d906131aa565b90600052602060002090601f016020900481019282611e9f5760008555611ee6565b82601f10611eb857805160ff1916838001178555611ee6565b82800160010185558215611ee6579182015b82811115611ee5578251825591602001919060010190611eca565b5b509050611ef39190611ef7565b5090565b5b80821115611f10576000816000905550600101611ef8565b5090565b6000611f27611f2284612f57565b612f26565b905082815260208101848484011115611f3f57600080fd5b611f4a848285613168565b509392505050565b600081359050611f6181613323565b92915050565b600081359050611f768161333a565b92915050565b600081359050611f8b81613351565b92915050565b600081519050611fa081613351565b92915050565b600082601f830112611fb757600080fd5b8135611fc7848260208601611f14565b91505092915050565b600081359050611fdf81613368565b92915050565b600060208284031215611ff757600080fd5b600061200584828501611f52565b91505092915050565b6000806040838503121561202157600080fd5b600061202f85828601611f52565b925050602061204085828601611f52565b9150509250929050565b60008060006060848603121561205f57600080fd5b600061206d86828701611f52565b935050602061207e86828701611f52565b925050604061208f86828701611fd0565b9150509250925092565b600080600080608085870312156120af57600080fd5b60006120bd87828801611f52565b94505060206120ce87828801611f52565b93505060406120df87828801611fd0565b925050606085013567ffffffffffffffff8111156120fc57600080fd5b61210887828801611fa6565b91505092959194509250565b6000806040838503121561212757600080fd5b600061213585828601611f52565b925050602061214685828601611f67565b9150509250929050565b6000806040838503121561216357600080fd5b600061217185828601611f52565b925050602061218285828601611fd0565b9150509250929050565b60006020828403121561219e57600080fd5b60006121ac84828501611f7c565b91505092915050565b6000602082840312156121c757600080fd5b60006121d584828501611f91565b91505092915050565b6000602082840312156121f057600080fd5b60006121fe84828501611fd0565b91505092915050565b612210816130f4565b82525050565b61221f81613106565b82525050565b600061223082612f9c565b61223a8185612fb2565b935061224a818560208601613177565b61225381613312565b840191505092915050565b600061226982612fa7565b6122738185612fc3565b9350612283818560208601613177565b61228c81613312565b840191505092915050565b60006122a282612fa7565b6122ac8185612fd4565b93506122bc818560208601613177565b80840191505092915050565b600081546122d5816131aa565b6122df8186612fd4565b945060018216600081146122fa576001811461230b5761233e565b60ff1983168652818601935061233e565b61231485612f87565b60005b8381101561233657815481890152600182019150602081019050612317565b838801955050505b50505092915050565b6000612354606383612fd4565b91507f222c20226465736372697074696f6e223a20224120686967686c79206163636c60008301527f61696d656420636f6c6c656374696f6e206f66206e6f6e2d4e46542e222c202260208301527f696d616765223a2022646174613a696d6167652f7376672b786d6c3b6261736560408301527f36342c00000000000000000000000000000000000000000000000000000000006060830152606382019050919050565b6000612406603283612fc3565b91507f4552433732313a207472616e7366657220746f206e6f6e20455243373231526560008301527f63656976657220696d706c656d656e74657200000000000000000000000000006020830152604082019050919050565b600061246c601c83612fc3565b91507f4552433732313a20746f6b656e20616c7265616479206d696e746564000000006000830152602082019050919050565b60006124ac602483612fc3565b91507f4552433732313a207472616e7366657220746f20746865207a65726f2061646460008301527f72657373000000000000000000000000000000000000000000000000000000006020830152604082019050919050565b6000612512601983612fc3565b91507f4552433732313a20617070726f766520746f2063616c6c6572000000000000006000830152602082019050919050565b6000612552602c83612fc3565b91507f4552433732313a206f70657261746f7220717565727920666f72206e6f6e657860008301527f697374656e7420746f6b656e00000000000000000000000000000000000000006020830152604082019050919050565b60006125b8603883612fc3565b91507f4552433732313a20617070726f76652063616c6c6572206973206e6f74206f7760008301527f6e6572206e6f7220617070726f76656420666f7220616c6c00000000000000006020830152604082019050919050565b600061261e602a83612fc3565b91507f4552433732313a2062616c616e636520717565727920666f7220746865207a6560008301527f726f2061646472657373000000000000000000000000000000000000000000006020830152604082019050919050565b6000612684602983612fc3565b91507f4552433732313a206f776e657220717565727920666f72206e6f6e657869737460008301527f656e7420746f6b656e00000000000000000000000000000000000000000000006020830152604082019050919050565b60006126ea602e83612fc3565b91507f45524337323155524953746f726167653a2055524920736574206f66206e6f6e60008301527f6578697374656e7420746f6b656e0000000000000000000000000000000000006020830152604082019050919050565b6000612750600283612fd4565b91507f227d0000000000000000000000000000000000000000000000000000000000006000830152600282019050919050565b6000612790602083612fc3565b91507f4552433732313a206d696e7420746f20746865207a65726f20616464726573736000830152602082019050919050565b60006127d0603183612fc3565b91507f45524337323155524953746f726167653a2055524920717565727920666f722060008301527f6e6f6e6578697374656e7420746f6b656e0000000000000000000000000000006020830152604082019050919050565b6000612836602c83612fc3565b91507f4552433732313a20617070726f76656420717565727920666f72206e6f6e657860008301527f697374656e7420746f6b656e00000000000000000000000000000000000000006020830152604082019050919050565b600061289c602983612fc3565b91507f4552433732313a207472616e73666572206f6620746f6b656e2074686174206960008301527f73206e6f74206f776e00000000000000000000000000000000000000000000006020830152604082019050919050565b6000612902602f83612fc3565b91507f4552433732314d657461646174613a2055524920717565727920666f72206e6f60008301527f6e6578697374656e7420746f6b656e00000000000000000000000000000000006020830152604082019050919050565b6000612968600a83612fd4565b91507f7b226e616d65223a2022000000000000000000000000000000000000000000006000830152600a82019050919050565b60006129a8602183612fc3565b91507f4552433732313a20617070726f76616c20746f2063757272656e74206f776e6560008301527f72000000000000000000000000000000000000000000000000000000000000006020830152604082019050919050565b6000612a0e600a83612fd4565b91507f46495253545f574f5244000000000000000000000000000000000000000000006000830152600a82019050919050565b6000612a4e601d83612fd4565b91507f646174613a6170706c69636174696f6e2f6a736f6e3b6261736536342c0000006000830152601d82019050919050565b6000612a8e603183612fc3565b91507f4552433732313a207472616e736665722063616c6c6572206973206e6f74206f60008301527f776e6572206e6f7220617070726f7665640000000000000000000000000000006020830152604082019050919050565b6000612af4600f83612fd4565b91507f20213c2f746578743e3c2f7376673e00000000000000000000000000000000006000830152600f82019050919050565b612b308161315e565b82525050565b6000612b428284612297565b915081905092915050565b6000612b598285612297565b9150612b658284612297565b91508190509392505050565b6000612b7d82856122c8565b9150612b898284612297565b9150612b9482612ae7565b91508190509392505050565b6000612bab8261295b565b9150612bb78285612297565b9150612bc282612347565b9150612bce8284612297565b9150612bd982612743565b91508190509392505050565b6000612bf082612a01565b9150612bfc8284612297565b915081905092915050565b6000612c1282612a41565b9150612c1e8284612297565b915081905092915050565b6000602082019050612c3e6000830184612207565b92915050565b6000608082019050612c596000830187612207565b612c666020830186612207565b612c736040830185612b27565b8181036060830152612c858184612225565b905095945050505050565b6000602082019050612ca56000830184612216565b92915050565b60006020820190508181036000830152612cc5818461225e565b905092915050565b60006060820190508181036000830152612ce7818661225e565b9050612cf66020830185612b27565b612d036040830184612207565b949350505050565b60006020820190508181036000830152612d24816123f9565b9050919050565b60006020820190508181036000830152612d448161245f565b9050919050565b60006020820190508181036000830152612d648161249f565b9050919050565b60006020820190508181036000830152612d8481612505565b9050919050565b60006020820190508181036000830152612da481612545565b9050919050565b60006020820190508181036000830152612dc4816125ab565b9050919050565b60006020820190508181036000830152612de481612611565b9050919050565b60006020820190508181036000830152612e0481612677565b9050919050565b60006020820190508181036000830152612e24816126dd565b9050919050565b60006020820190508181036000830152612e4481612783565b9050919050565b60006020820190508181036000830152612e64816127c3565b9050919050565b60006020820190508181036000830152612e8481612829565b9050919050565b60006020820190508181036000830152612ea48161288f565b9050919050565b60006020820190508181036000830152612ec4816128f5565b9050919050565b60006020820190508181036000830152612ee48161299b565b9050919050565b60006020820190508181036000830152612f0481612a81565b9050919050565b6000602082019050612f206000830184612b27565b92915050565b6000604051905081810181811067ffffffffffffffff82111715612f4d57612f4c6132e3565b5b8060405250919050565b600067ffffffffffffffff821115612f7257612f716132e3565b5b601f19601f8301169050602081019050919050565b60008190508160005260206000209050919050565b600081519050919050565b600081519050919050565b600082825260208201905092915050565b600082825260208201905092915050565b600081905092915050565b6000612fea8261315e565b9150612ff58361315e565b9250827fffffffffffffffffffffffffffffffffffffffffffffffffffffffffffffffff0382111561302a57613029613256565b5b828201905092915050565b60006130408261315e565b915061304b8361315e565b92508261305b5761305a613285565b5b828204905092915050565b60006130718261315e565b915061307c8361315e565b9250817fffffffffffffffffffffffffffffffffffffffffffffffffffffffffffffffff04831182151516156130b5576130b4613256565b5b828202905092915050565b60006130cb8261315e565b91506130d68361315e565b9250828210156130e9576130e8613256565b5b828203905092915050565b60006130ff8261313e565b9050919050565b60008115159050919050565b60007fffffffff0000000000000000000000000000000000000000000000000000000082169050919050565b600073ffffffffffffffffffffffffffffffffffffffff82169050919050565b6000819050919050565b82818337600083830152505050565b60005b8381101561319557808201518184015260208101905061317a565b838111156131a4576000848401525b50505050565b600060028204905060018216806131c257607f821691505b602082108114156131d6576131d56132b4565b5b50919050565b60006131e78261315e565b91507fffffffffffffffffffffffffffffffffffffffffffffffffffffffffffffffff82141561321a57613219613256565b5b600182019050919050565b60006132308261315e565b915061323b8361315e565b92508261324b5761324a613285565b5b828206905092915050565b7f4e487b7100000000000000000000000000000000000000000000000000000000600052601160045260246000fd5b7f4e487b7100000000000000000000000000000000000000000000000000000000600052601260045260246000fd5b7f4e487b7100000000000000000000000000000000000000000000000000000000600052602260045260246000fd5b7f4e487b7100000000000000000000000000000000000000000000000000000000600052604160045260246000fd5b6000601f19601f8301169050919050565b61332c816130f4565b811461333757600080fd5b50565b61334381613106565b811461334e57600080fd5b50565b61335a81613112565b811461336557600080fd5b50565b6133718161315e565b811461337c57600080fd5b5056fe416e204e4654207769746820494420256420686173206265656e206d696e74656420746f2025734142434445464748494a4b4c4d4e4f505152535455565758595a6162636465666768696a6b6c6d6e6f707172737475767778797a303132333435363738392b2fa264697066735822122081f2b63c09cbf82db5762ff505606d12f0fd05004dd6ebf43332f3c1be52121764736f6c634300080000333c73766720786d6c6e733d27687474703a2f2f7777772e77332e6f72672f323030302f73766727207072657365727665417370656374526174696f3d27784d696e594d696e206d656574272076696577426f783d273020302033353020333530273e3c7374796c653e2e62617365207b2066696c6c3a2077686974653b20666f6e742d66616d696c793a2073657269663b20666f6e742d73697a653a20333470783b207d3c2f7374796c653e3c726563742077696474683d273130302527206865696768743d2731303025272066696c6c3d2723374343364645272f3e3c7465787420783d273530252720793d273330252720636c6173733d27626173652720646f6d696e616e742d626173656c696e653d276d6964646c652720746578742d616e63686f723d276d6964646c65273e43656369206e276573742070617320756e204e46542c3c2f746578743e3c7465787420783d273530252720793d273535252720636c6173733d27626173652720646f6d696e616e742d626173656c696e653d276d6964646c652720746578742d616e63686f723d276d6964646c65273e2063276573742054686973206973206d7920617765736f6d65204e465420436f6e74726163742e2049736e277420746861742067726561743f2121",
  "linkReferences": {},
  "deployedLinkReferences": {}
}